:100000000C9442000C945F000C9413020C9439027F
:100010000C9477060C944E060C945F000C94250605
:100020000C94FC050C94D3050C9481050C94AA0542
:100030000C945F000C945F000C945F000C945F00C4
:100040000C945F000C945F000C945F000C945F00B4
:100050000C945F00CA06CE06D3066807D806680768
:10006000DD06E20607070A070F076507130765079E
:1000700017071B073D07410745074A074F07540766
:1000800059075E0711241FBECFE5D8E0DEBFCDBF04
:1000900010E0A0E6B0E0E2E4FFE002C005900D92BF
:1000A000A43BB107D9F721E0A4EBB0E001C01D9259
:1000B000A732B207E1F70E9433010C949F070C941A
:1000C0000000D998DA9835E33A95F1F70000DB9A09
:1000D00095E39A95F1F700009BB39F70282F207F3E
:1000E000922B9BBB35E33A95F1F70000DB9895E343
:1000F0009A95F1F70000DB9A35E33A95F1F70000A5
:100100002BB32F7030E1839FC0011124822B8BBB56
:1001100085E38A95F1F70000DB9895E39A95F1F76E
:10012000000008958AB38E608ABB8AB3806F8ABB51
:1001300082E00E94610088E20E9461008CE00E94DF
:10014000610081E00E9461000895D99ADA9835E350
:100150003A95F1F70000DB9A95E39A95F1F70000E4
:100160009BB39F70282F207F922B9BBB35E33A9542
:10017000F1F70000DB9895E39A95F1F70000DB9A20
:1001800035E33A95F1F700002BB32F7030E1839FF0
:10019000C0011124822B8BBB85E38A95F1F7000007
:1001A000DB9895E39A95F1F7000008950F931F935C
:1001B000CF93FC018081882359F08F01C0E00E9419
:1001C000A500CF5FF801EC0FF11D80818111F7CF01
:1001D000CF911F910F910895813041F028F0823026
:1001E00041F0833049F00AC0962F08C090E4960F82
:1001F00005C090E1960F02C090E5960F892F8068A8
:100200000E9461000895CF93DF93CDB7DEB72C979E
:100210000FB6F894DEBF0FBECDBF1C86FE013C9624
:100220004DEC849F912D1124969596959695392F96
:10023000330F232F220F220F230F821B805D829307
:10024000892F9111EECFCF010E94D6002C960FB6C8
:10025000F894DEBF0FBECDBFDF91CF91089581E04E
:100260000E9461000895CF93DF9300D000D01F92C9
:10027000CDB7DEB711BA8FEF82BB8BB7806A8BBF69
:1002800085B785BF8FB780688FBF0E9492000E949C
:100290002F01198281E090E0A0E0B0E08A839B8387
:1002A000AC83BD83CE0101960E94C1022BE831E0F0
:1002B00041E050E064E670E080E090E00E941103CD
:1002C00028E931E042E050E068EC70E080E090E046
:1002D0000E94110327EA31E043E050E06CE271E054
:1002E00080E090E00E94110326EB31E041E050E015
:1002F00060E971E080E090E00E94110325EC31E0BC
:1003000042E050E064EF71E080E090E00E94110371
:100310000E942605FDCF80916000813041F486EA7D
:1003200090E00E94D6008BE891E00E949704089527
:1003300080916000823051F40E942F0189E990E0A1
:100340000E94D60088E991E00E9497040895809168
:100350006000833051F40E942F018CE890E00E94ED
:10036000D60087EA91E00E9497040895809160008A
:10037000843051F40E942F018FE790E00E94D60054
:1003800086EB91E00E9497040895CF93DF9300D00D
:1003900000D0CDB7DEB7809160008530E9F581E00F
:1003A00089838A831B821C820E942F0188E790E048
:1003B0000E94D6008091B70090E00E94030181E77F
:1003C00090E00E94D6008091B60090E00E94030168
:1003D00060E070E081E090E00E94EC0081E690E057
:1003E0000E94D6008091B400FE013196A3E2B1E0F4
:1003F000AE014B5F5F4F21919D91291301C08F5F2B
:10040000E417F507C1F78093B40090E00E94030160
:1004100085EC91E00E9497040F900F900F900F9041
:10042000DF91CF9108951F920F920FB60F92112472
:100430008F93EF93FF93E091B500F0E0ED5DFE4FF9
:1004400081E080838091B7008F5F8093B7008091B7
:1004500060008F5F809360008091B5008F5F809314
:10046000B500FF91EF918F910F900FBE0F901F90ED
:1004700018951F920F920FB60F9211248F93EF933E
:10048000FF93E091B500F0E0ED5DFE4F10828091AA
:10049000B6008F5F8093B600809160008F5F80937D
:1004A00060008091B5008F5F8093B500FF91EF9160
:1004B0008F910F900FBE0F901F9018951092BC0057
:1004C0001092BD001092BE001092BF004091BC007F
:1004D0005091BD006091BE007091BF008091B80046
:1004E0009091B900A091BA00B091BB00481759078C
:1004F0006A077B0708F044C02DE08091BC00909112
:10050000BD00A091BE00B091BF00289FF001299FBF
:10051000F00D1124EB52FF4F81859285A385B485A0
:100520000196A11DB11D81879287A387B487809111
:10053000BC009091BD00A091BE00B091BF0001969B
:10054000A11DB11D8093BC009093BD00A093BE007F
:10055000B093BF004091BC005091BD006091BE00BF
:100560007091BF008091B8009091B900A091BA003D
:10057000B091BB00481759076A077B0708F4BDCF45
:1005800008950F931F93CF93DF9300D000D0CDB782
:10059000DEB78C018FB780688FBFF80181819281AF
:1005A000A381B4818093C0009093C100A093C20046
:1005B000B093C30019821A8281E08B8384E08C831C
:1005C000CE0101960E94A006F8018081813069F079
:1005D00018F0823099F01BC08EE592E00E948A07E5
:1005E00080E00E946A0781E013C08EE592E00E94DD
:1005F0008F0781E00E946A0781E00AC08EE592E0E1
:100600000E94940782E00E946A0781E001C080E0B6
:100610000F900F900F900F90DF91CF911F910F913E
:1006200008952F923F924F925F926F927F928F9296
:100630009F92AF92BF92CF92DF92EF92FF920F9371
:100640001F93CF93DF93CDB7DEB76A970FB6F894B9
:10065000DEBF0FBECDBF2B013C017A016901809145
:10066000B8009091B900A091BA00B091BB00079773
:10067000A105B10508F02DC18091B8009091B90095
:10068000A091BA00B091BB00892B8A2B8B2B09F06B
:1006900049C04091B8005091B9006091BA00709182
:1006A000BB008DE0849FF001859FF00D1124EB527B
:1006B000FF4F378326834091B8005091B900609175
:1006C000BA007091BB00849FF001859FF00D11244A
:1006D000EB52FF4F40825182628273824091B80098
:1006E0005091B9006091BA007091BB00849FF001F5
:1006F000859FF00D1124EB52FF4FF582E48240916B
:10070000B8005091B9006091BA007091BB00849F0D
:10071000F001859FF00D1124EB52FF4F82E080879E
:1007200081E0D8C08091B8009091B900A091BA0042
:10073000B091BB000197A109B1092DE0289FF001FC
:10074000299FF00D1124EB52FF4F848195814817AA
:10075000590778F48091B8009091B900A091BA003F
:10076000B091BB00892B8A2B8B2B09F04BC081E009
:10077000B1C04091B8005091B9006091BA00709139
:10078000BB008DE0849FF001859FF00D1124EB529A
:10079000FF4FD782C6824091B8005091B900609156
:1007A000BA007091BB00849FF001859FF00D112469
:1007B000EB52FF4F40825182628273824091B800B7
:1007C0005091B9006091BA007091BB00849FF00114
:1007D000859FF00D1124EB52FF4FF582E48240918A
:1007E000B8005091B9006091BA007091BB00849F2D
:1007F000F001859FF00D1124EB52FF4F82E08087BE
:1008000081E068C085ED90E000E010E0980140E0F4
:1008100050E06894332431F822242394411119C004
:10082000FC0164817581E616F70698F44DE0DE015F
:10083000119601900D924A95E1F7FC01D782C6828C
:100840004082518262827382F582E4823086422D38
:1008500002C05130A1F45DE0FC013D96DE011E9620
:1008600001900D925A95E1F75DE0FE013196DC01B1
:100870001D9601900D925A95E1F7532D15C05230F7
:1008800099F45DE0FC013D96DE01119601900D9218
:100890005A95E1F75DE0FE013E96DC011D96019060
:1008A0000D925A95E1F7522D0F5F1F4F2F4F3F4F7B
:1008B0008090B8009090B900A090BA00B090BB00B2
:1008C0000D96081519052A053B0508F4A7CF81E008
:1008D00001C080E04091B8005091B9006091BA0029
:1008E0007091BB004F5F5F4F6F4F7F4F4093B800D9
:1008F0005093B9006093BA007093BB006A960FB62C
:10090000F894DEBF0FBECDBFDF91CF911F910F9145
:10091000FF90EF90DF90CF90BF90AF909F908F901F
:100920007F906F905F904F903F902F900895DF924F
:10093000EF92FF920F931F93CF93DF934091B800F4
:100940005091B9006091BA007091BB00452B462BC5
:10095000472B09F471C04091B8005091B9006091E3
:10096000BA007091BB00452B462B472B09F44EC0B3
:10097000C5EDD0E0E0E040E050E0BA01FF24F394A0
:10098000DD24D394E12CDE012E813F812817390725
:10099000E9F40091B8001091B9002091BA003091AB
:1009A000BB00015011092109310904171507260759
:1009B000370771F48DE0849FF001859FF00D1124BD
:1009C000EB52FF4F10861782168222C0E13049F4A5
:1009D0002DE0FD013D9601900D922A95E1F7ED2D58
:1009E00001C0FE2C4F5F5F4F6F4F7F4F0091B800EB
:1009F0001091B9002091BA003091BB002D9640179C
:100A000051076207730708F4BECF02C0FF24F394B6
:100A10008091B8009091B900A091BA00B091BB004C
:100A20000197A109B1098093B8009093B900A093F0
:100A3000BA00B093BB0001C0F12C8F2DDF91CF9194
:100A40001F910F91FF90EF90DF900895CF92DF926A
:100A5000EF92FF921F93CF93DF938091B800909114
:100A6000B900A091BA00B091BB00892B8A2B8B2BC7
:100A700009F43FC0C5EDD0E0C12CD12C760112E0C5
:100A800089859A85AB85BC85488159816A817B813E
:100A900084179507A607B707C9F4AC01BD01440F39
:100AA000551F661F771F481759076A077B0770F0A5
:100AB00019861A861B861C868885823021F4EE8171
:100AC000FF81099503C0813009F418878FEFC81A98
:100AD000D80AE80AF80A8091B8009091B900A0916C
:100AE000BA00B091BB002D96C816D906EA06FB06DF
:100AF00038F2DF91CF911F91FF90EF90DF90CF9070
:100B000008951F920F920FB60F9211242F933F93C7
:100B10004F935F936F937F938F939F93AF93BF9305
:100B2000EF93FF93E091D100F091D200309709F05C
:100B30000995FF91EF91BF91AF919F918F917F9117
:100B40006F915F914F913F912F910F900FBE0F903A
:100B50001F9018951F920F920FB60F9211242F938A
:100B60003F934F935F936F937F938F939F93AF9335
:100B7000BF93EF93FF93E091D300F091D4003097AF
:100B800009F00995FF91EF91BF91AF919F918F91DE
:100B90007F916F915F914F913F912F910F900FBE79
:100BA0000F901F9018951F920F920FB60F9211245D
:100BB0002F933F934F935F936F937F938F939F9365
:100BC000AF93BF93EF93FF93E091CF00F091D000EC
:100BD000309709F00995FF91EF91BF91AF919F91E7
:100BE0008F917F916F915F914F913F912F910F90D6
:100BF0000FBE0F901F9018951F920F920FB60F9275
:100C000011242F933F934F935F936F937F938F9311
:100C10009F93AF93BF93EF93FF93E091CB00F0913D
:100C2000CC00309709F00995FF91EF91BF91AF91FA
:100C30009F918F917F916F915F914F913F912F91F4
:100C40000F900FBE0F901F9018951F920F920FB626
:100C50000F9211242F933F934F935F936F937F9342
:100C60008F939F93AF93BF93EF93FF93E091CD004A
:100C7000F091CE00309709F00995FF91EF91BF9167
:100C8000AF919F918F917F916F915F914F913F9124
:100C90002F910F900FBE0F901F9018951F920F92DB
:100CA0000FB60F9211242F933F934F935F936F933F
:100CB0007F938F939F93AF93BF93EF93FF93E091B5
:100CC000C900F091CA00309709F00995FF91EF91A2
:100CD000BF91AF919F918F917F916F915F914F9154
:100CE0003F912F910F900FBE0F901F9018951F925C
:100CF0000F920FB60F9211242F933F934F935F9350
:100D00006F937F938F939F93AF93BF93EF93FF93D3
:100D1000E091C700F091C800309709F00995FF9164
:100D2000EF91BF91AF919F918F917F916F915F9163
:100D30004F913F912F910F900FBE0F901F901895DC
:100D4000FC019081913009F442C020F0923009F406
:100D500076C0B9C083B7877B2181822B83BF828114
:100D6000882319F0813029F008C089B78C7F89BFAA
:100D700004C089B78C7F816089BF8381482F50E090
:100D80004830510528F4FA01E65DFF4F0C949907AD
:100D900091E09EC01092C60091E09AC091E09093BD
:100DA000C600982F95C082E08093C60091E090C065
:100DB00083E08093C60091E08BC084E08093C600FE
:100DC00091E086C085E08093C60091E081C02EB599
:100DD0003FB58181282B3FBD2EBD8281882319F02C
:100DE000813029F008C089B7837C89BF04C089B7E6
:100DF000837C806189BF8381482F50E04830510552
:100E000008F066C0FA01EE5CFF4F0C94990710924F
:100E1000C5005EC091E09093C500982F59C082E054
:100E20008093C50055C083E08093C50051C084E025
:100E30008093C5004DC085E08093C50049C085B54D
:100E4000877B9181892B85BD8281882319F0813030
:100E500029F008C089B78F7389BF04C089B78F7321
:100E6000806489BF9381492F50E04830510578F55F
:100E7000FA01E65CFF4F0C9499071092C40091E0D0
:100E800027C081E08093C40023C082E08093C40027
:100E900091E01EC083E08093C40091E019C084E01B
:100EA0008093C40091E014C085E08093C40091E079
:100EB0000FC086E08093C40091E00AC087E0809371
:100EC000C40091E005C090E003C090E001C091E053
:100ED000892F0895813061F018F0823089F018C0B0
:100EE00083B7887F9091C600892B83BF81E00895E6
:100EF0008EB5887F9091C500892B8EBD81E00895C5
:100F000085B5887F9091C400892B85BD81E00895C7
:100F100080E008959093D4008093D3000895909337
:100F2000D0008093CF0008959093CA008093C900A9
:100F30000895EE0FFF1F0590F491E02D0994F894A9
:020F4000FFCFE1
:100F4200016E236F6620436F72637420416E733AA1
:100F520000206E234E6F3A006E235965733A00519A
:100F6200342020312B343D30203F200051332020CB
:100F7200312B333D37203F200051322020312B329C
:100F82003D33203F200051313A20312B313D322078
:040F92003F200000FC
:00000001FF
